:020000040800F2
:10000000000005204D2A00089D2A00089D2A0008AE
:100010009D2A00089D2A00089D2A00080000000073
:100020000000000000000000000000009D2A000801
:100030009D2A0008000000009D2A00089D2A000853
:100040009D2A00089D2A00089D2A00089D2A000874
:100050009D2A00089D2A00089D2A00089D2A000864
:100060009D2A00089D2A00089D2A00089D2A000854
:100070009D2A00089D2A00089D2A00089D2A000844
:100080009D2A00089D2A00089D2A00089D2A000834
:100090009D2A00089D2A00089D2A00089D2A000824
:1000A0009D2A00089D2A00089D2A00089D2A000814
:1000B0009D2A00089D2A00089D2A00089D2A000804
:1000C0009D2A00089D2A00089D2A00089D2A0008F4
:1000D0009D2A00089D2A00089D2A00089D2A0008E4
:1000E0009D2A00089D2A00089D2A00089D2A0008D4
:1000F0009D2A00089D2A00089D2A00089D2A0008C4
:100100009D2A00089D2A00089D2A00089D2A0008B3
:100110009D2A00089D2A0008252A00089D2A00081B
:100120009D2A00089D2A00089D2A00089D2A000893
:100130009D2A00089D2A00089D2A00089D2A000883
:100140009D2A00089D2A00089D2A00089D2A000873
:100150009D2A00089D2A00089D2A00089D2A000863
:100160009D2A00089D2A00089D2A00089D2A000853
:100170009D2A00089D2A00089D2A00080000000012
:100180009D2A00089D2A00089D2A00089D2A000833
:100190009D2A00089D2A00089D2A00089D2A000823
:1001A00000000000000000009D2A00089D2A0008B1
:1001B0009D2A00089D2A00089D2A00089D2A000803
:0801C0009D2A00089D2A000899
:1002000081F0004102E000BF83F0004330B54FEAC7
:1002100041044FEA430594EA050F08BF90EA020F34
:100220001FBF54EA000C55EA020C7FEA645C7FEAC7
:10023000655C00F0E2804FEA5454D4EB5555B8BFEA
:100240006D420CDD2C4480EA020281EA030382EA5B
:10025000000083EA010180EA020281EA0303362DED
:1002600088BF30BD11F0004F4FEA01314FF4801CC0
:100270004CEA113102D0404261EB410113F0004FD2
:100280004FEA03334CEA133302D0524263EB430389
:1002900094EA050F00F0A780A4F10104D5F1200E27
:1002A0000DDB02FA0EFC22FA05F2801841F1000182
:1002B00003FA0EF2801843FA05F359410EE0A5F156
:1002C00020050EF1200E012A03FA0EFC28BF4CF087
:1002D000020C43FA05F3C01851EBE37101F000453D
:1002E00007D54FF0000EDCF1000C7EEB00006EEB4A
:1002F0000101B1F5801F1BD3B1F5001F0CD34908D4
:100300005FEA30004FEA3C0C04F101044FEA44522A
:1003100012F5800F80F09A80BCF1004F08BF5FEAB1
:10032000500C50F1000041EB045141EA050130BD91
:100330005FEA4C0C404141EB0101013C28BFB1F5A3
:10034000801FE9D291F0000F04BF01460020B1FAEE
:1003500081F308BF2033A3F10B03B3F120020CDAC1
:100360000C3208DD02F1140CC2F10C0201FA0CF09F
:1003700021FA02F10CE002F11402D8BFC2F1200C04
:1003800001FA02F120FA0CFCDCBF41EA0C019040BA
:10039000E41AA2BF01EB0451294330BD6FEA040403
:1003A0001F3C1CDA0C340EDC04F11404C4F12002EE
:1003B00020FA04F001FA02F340EA030021FA04F300
:1003C00045EA030130BDC4F10C04C4F1200220FA57
:1003D00002F001FA04F340EA0300294630BD21FA95
:1003E00004F0294630BD94F0000F83F4801306BF5B
:1003F00081F480110134013D4EE77FEA645C18BF4F
:100400007FEA655C29D094EA050F08BF90EA020FE5
:1004100005D054EA000C04BF1946104630BD91EADD
:10042000030F1EBF0021002030BD5FEA545C05D1E0
:100430004000494128BF41F0004130BD14F580041F
:100440003CBF01F5801130BD01F0004545F0FE4193
:1004500041F470014FF0000030BD7FEA645C1ABFC8
:10046000194610467FEA655C1CBF0B46024650EAFF
:10047000013406BF52EA033591EA030F41F400212B
:1004800030BD00BF90F0000F04BF0021704730B5B1
:100490004FF4806404F132044FF000054FF0000186
:1004A00050E700BF90F0000F04BF0021704730B547
:1004B0004FF4806404F1320410F0004548BF40421C
:1004C0004FF000013EE700BF42004FEAE2014FEA71
:1004D00031014FEA02701FBF12F07F4393F07F4F4C
:1004E00081F06051704732F07F4208BF704793F04F
:1004F0007F4F04BF41F40021704730B54FF4607462
:1005000001F0004521F000411CE700BF50EA010264
:1005100008BF704730B54FF000050AE050EA01020D
:1005200008BF704730B511F0004502D5404261EB7D
:1005300041014FF4806404F132045FEA915C3FF4BE
:10054000D8AE4FF003025FEADC0C18BF03325FEA5B
:10055000DC0C18BF033202EBDC02C2F1200300FA0C
:1005600003FC20FA02F001FA03FE40EA0E0021FA31
:1005700002F11444BDE600BF70B54FF0FF0C4CF41F
:10058000E06C1CEA11541DBF1CEA135594EA0C0FD1
:1005900095EA0C0F00F0DEF82C4481EA030621EA0C
:1005A0004C5123EA4C5350EA013518BF52EA033547
:1005B00041F4801143F4801338D0A0FB02CE4FF0F9
:1005C0000005E1FB02E506F00042E0FB03E54FF029
:1005D0000006E1FB03569CF0000F18BF4EF0010E21
:1005E000A4F1FF04B6F5007F64F5407404D25FEA1D
:1005F0004E0E6D4146EB060642EAC62141EA5551D0
:100600004FEAC52040EA5E504FEACE2EB4F1FD0C11
:1006100088BFBCF5E06F1ED8BEF1004F08BF5FEA8F
:10062000500E50F1000041EB045170BD06F0004641
:1006300046EA010140EA020081EA0301B4EB5C04EE
:10064000C2BFD4EB0C0541EA045170BD41F48011E6
:100650004FF0000E013C00F3AB8014F1360FDEBF0B
:10066000002001F0004170BDC4F10004203C35DAE7
:100670000C341BDC04F11404C4F1200500FA05F36A
:1006800020FA04F001FA05F240EA020001F000420B
:1006900021F0004110EBD37021FA04F642EB060181
:1006A0005EEA430E08BF20EAD37070BDC4F10C04AB
:1006B000C4F1200500FA04F320FA05F001FA04F26F
:1006C00040EA020001F0004110EBD37041F100015B
:1006D0005EEA430E08BF20EAD37070BDC4F1200566
:1006E00000FA05F24EEA020E20FA04F301FA05F2CE
:1006F00043EA020321FA04F001F0004121FA04F276
:1007000020EA020000EBD3705EEA430E08BF20EA45
:10071000D37070BD94F0000F0FD101F0004640007F
:1007200041EB010111F4801F08BF013CF7D041EA01
:10073000060195F0000F18BF704703F00046520005
:1007400043EB030313F4801F08BF013DF7D043EAD6
:100750000603704794EA0C0F0CEA135518BF95EA8C
:100760000C0F0CD050EA410618BF52EA4306D1D113
:1007700081EA030101F000414FF0000070BD50EA32
:10078000410606BF1046194652EA430619D094EABC
:100790000C0F02D150EA013613D195EA0C0F05D1A6
:1007A00052EA03361CBF104619460AD181EA0301FA
:1007B00001F0004141F0FE4141F470014FF00000B2
:1007C00070BD41F0FE4141F4780170BD70B54FF04D
:1007D000FF0C4CF4E06C1CEA11541DBF1CEA1355CD
:1007E00094EA0C0F95EA0C0F00F0A7F8A4EB0504AF
:1007F00081EA030E52EA03354FEA013100F08880A6
:100800004FEA03334FF0805545EA131343EA12636E
:100810004FEA022245EA111545EA10654FEA002623
:100820000EF000419D4208BF964244F1FD0404F5DC
:10083000407402D25B084FEA3202B61A65EB030538
:100840005B084FEA32024FF480104FF4002CB6EBF5
:10085000020E75EB030E22BFB61A754640EA0C0075
:100860005B084FEA3202B6EB020E75EB030E22BFB5
:10087000B61A754640EA5C005B084FEA3202B6EBF6
:10088000020E75EB030E22BFB61A754640EA9C00B5
:100890005B084FEA3202B6EB020E75EB030E22BF85
:1008A000B61A754640EADC0055EA060E18D04FEA43
:1008B000051545EA16754FEA06164FEAC30343EAE3
:1008C00052734FEAC2025FEA1C1CC0D111F4801FB0
:1008D0000BD141EA00014FF000004FF0004CB6E7A9
:1008E00011F4801F04BF01430020B4F1FD0C88BF48
:1008F000BCF5E06F3FF6AFAEB5EB030C04BFB6EB53
:10090000020C5FEA500C50F1000041EB045170BD45
:100910000EF0004E4EEA113114EB5C04C2BFD4EB72
:100920000C0541EA045170BD41F480114FF0000EF6
:10093000013C90E645EA060E8DE60CEA135594EA72
:100940000C0F08BF95EA0C0F3FF43BAF94EA0C0F75
:100950000AD150EA01347FF434AF95EA0C0F7FF4EA
:1009600025AF104619462CE795EA0C0F06D152EA3E
:1009700003353FF4FDAE1046194622E750EA410622
:1009800018BF52EA43067FF4C5AE50EA41047FF433
:100990000DAF52EA43057FF4EBAE12E74FF0FF3C98
:1009A00006E000BF4FF0010C02E000BF4FF0010C69
:1009B0004DF804CD4FEA410C7FEA6C5C4FEA430CE2
:1009C00018BF7FEA6C5C1BD001B050EA410C0CBF31
:1009D00052EA430C91EA030F02BF90EA020F002093
:1009E000704710F1000F91EA030F58BF994208BFFA
:1009F00090422CBFD8176FEAE37040F001007047B7
:100A00004FEA410C7FEA6C5C02D150EA013C07D10D
:100A10004FEA430C7FEA6C5CD6D152EA033CD3D058
:100A20005DF8040B704700BF8446104662468C4652
:100A30001946634600E000BF01B5FFF7B7FF002885
:100A400048BF10F1000F01BD4DF808EDFFF7F4FFAE
:100A50000CBF012000205DF808FB00BF4DF808ED39
:100A6000FFF7EAFF34BF012000205DF808FB00BF5C
:100A70004DF808EDFFF7E0FF94BF012000205DF87E
:100A800008FB00BF4DF808EDFFF7CEFF94BF012033
:100A900000205DF808FB00BF4DF808EDFFF7C4FF2C
:100AA00034BF012000205DF808FB00BF4FEA410C75
:100AB0007FEA6C5C02D150EA013C0AD14FEA430C58
:100AC0007FEA6C5C02D152EA033C02D14FF0000095
:100AD00070474FF0010070474FEA410212F50012D3
:100AE00015D211D56FF47873B3EB625212D94FEA75
:100AF000C12343F0004343EA505311F0004F23FA5F
:100B000002F018BF404270474FF00000704750EAB3
:100B1000013005D111F0004008BF6FF00040704770
:100B20004FF00000704700BF4A0011D212F50012CA
:100B300011D20DD56FF47873B3EB62520ED44FEA35
:100B4000C12343F0004343EA505323FA02F07047B5
:100B50004FF00000704750EA013002D14FF0FF30F3
:100B600070474FF0000070474FEA4102B2F1E04396
:100B700024BFB3F5001CDCF1FE5C0DD901F0004C84
:100B80004FEAC0024CEA5070B2F1004F40EB8300D4
:100B900008BF20F00100704711F0804F21D113F100
:100BA0003872BCBF01F00040704741F480114FEA39
:100BB0005252C2F11802C2F1200C10FA0CF320FAC2
:100BC00002F018BF40F001004FEAC1234FEAD323DF
:100BD00003FA0CFC40EA0C0023FA02F34FEA430349
:100BE000CCE77FEA625307D150EA01331EBF4FF0D2
:100BF000FE4040F44000704701F0004040F0FE40ED
:100C000040F40000704700BF00000000000000003A
:100C100000000000000000000000000000000000D4
:100C200002780B78012A28BF9A4240F0D8806DE9FB
:100C3000044540EA0104CDE902676FF0000C4FEA79
:100C400044721AB380EA010414F0070F6BD100F06C
:100C5000070420F0070004F0030521F007014FEA24
:100C6000C505F0E8042314F0040FF1E804670CFA5A
:100C700005F462EA040266EA04060BD063EA0403A0
:100C8000624667EA0407664604E000BFF0E8042312
:100C9000F1E8046782FA4CF582EA0604A4FA8CF4BF
:100CA0006CBB83FA4CF583EA0705A5FA8CF595B978
:100CB00050E9022351E9026782FA4CF582EA060400
:100CC000A4FA8CF483FA4CF583EA0705A5FA8CF5AF
:100CD0002543DBD09CB92DBAB5FA85F424F007047E
:100CE00027FA04F1DDE9026723FA04F303F0FF00B9
:100CF00001F0FF01FDE80445A0EB0100704724BAB4
:100D0000B4FA84F424F0070426FA04F1DDE902675A
:100D100022FA04F202F0FF0001F0FF01FDE80445B1
:100D2000A0EB0100704714F0030F3CD110F0030456
:100D300028D150F8082B51F8083B82FA4CF582EA8A
:100D40000305A5FA8CF55DB950F8042C51F8043C64
:100D500082FA4CF582EA0305A5FA8CF5002DE8D05D
:100D60002DBAB5FA85F424F0070423FA04F122FA27
:100D700004F202F0FF0001F0FF01FDE80445A0EBE2
:100D8000010070474FEAC40420F0030050F8082B1C
:100D900021F0030151F8083B0CFA04F462EA040262
:100DA00063EA0403C9E710F003041DD0A1EB0401BA
:100DB00020F00300E40750F8042B06D012D28B7801
:100DC0005FFAA2F4E41A06D12BB1CB785FFAB2F441
:100DD000E41A00D133B920465DF8104B7047A2EBFE
:100DE0000300704701F1040150F8042BCC0721F0F7
:100DF000030151F8043B48D824D222F07F4482FA00
:100E00004CF594EA1325A5FA8CF50AD165B951F889
:100E1000043B84EA0204B4EB036F0ED150F8042BB8
:100E2000EBE74FEA132355E035F07F454DD10878C5
:100E3000FDE80445C0F1000070474FEA126203F07C
:100E4000FF0347E002EA1C4482FA4CF594EA13459A
:100E5000A5FA8CF50AD165B951F8043B84EA02047D
:100E6000B4EB034F0CD150F8042BEBE74FEA1343DC
:100E700030E015EA1C4528D10B884FEA124229E0E0
:100E80004FEA124203EA1C4324E002F0FF0482FA14
:100E90004CF594EA1365A5FA8CF50AD165B951F8B9
:100EA000043B84EA0204B4EB032F09D150F8042B6D
:100EB000EBE74FEA13630DE015F0FF0F05D10B6868
:100EC0004FEA122223F07F4304E04FF00000FDE8D8
:100ED0000445704712BA1BBA82FA4CF482EA030442
:100EE000A4FA8CF5B5FA85F402FA04F203FA04F3D5
:100EF0004FEA1260FDE80445A0EB1360704700BFA5
:100F0000844641EA000313F003036DD1403A41D314
:100F100051F8043B40F8043B51F8043B40F8043BD3
:100F200051F8043B40F8043B51F8043B40F8043BC3
:100F300051F8043B40F8043B51F8043B40F8043BB3
:100F400051F8043B40F8043B51F8043B40F8043BA3
:100F500051F8043B40F8043B51F8043B40F8043B93
:100F600051F8043B40F8043B51F8043B40F8043B83
:100F700051F8043B40F8043B51F8043B40F8043B73
:100F800051F8043B40F8043B51F8043B40F8043B63
:100F9000403ABDD2303211D351F8043B40F8043B03
:100FA00051F8043B40F8043B51F8043B40F8043B43
:100FB00051F8043B40F8043B103AEDD20C3205D313
:100FC00051F8043B40F8043B043AF9D2043208D00B
:100FD000D2071CBF11F8013B00F8013B01D30B887D
:100FE00003806046704700BF082A13D38B078DD05B
:100FF00010F003038AD0C3F10403D21ADB071CBF2D
:1010000011F8013B00F8013B80D331F8023B20F896
:10101000023B7BE7043AD9D3013A11F8013B00F8CF
:10102000013BF9D20B7803704B7843708B78837057
:101030006046704700000000000000000000000053
:1010400030B490F800F020F007016FF0000C10F0C1
:10105000070491F820F040F048804FF000046FF052
:101060000700D1E9002391F840F000F1080082FA6E
:101070004CF2A4FA8CF283FA4CF3A2FA8CF34BBB39
:10108000D1E9022382FA4CF200F10800A4FA8CF2B2
:1010900083FA4CF3A2FA8CF3E3B9D1E9042382FA80
:1010A0004CF200F10800A4FA8CF283FA4CF3A2FA95
:1010B0008CF37BB9D1E9062301F1200182FA4CF2CD
:1010C00000F10800A4FA8CF283FA4CF3A2FA8CF334
:1010D000002BC6D0002A04BF04301A4612BAB2FA56
:1010E00082F200EBD20030BC7047D1E9002304F05B
:1010F0000305C4F100004FEAC50514F0040F91F890
:1011000040F00CFA05F562EA05021CBF63EA05032C
:1011100062464FF00004AAE7000000000000000053
:1011200001F0FF01102A2BDB10F0070F08D010F898
:10113000013B013A8B422DD010F0070F42B3F6D19C
:10114000F0B441EA012141EA014122F007047FF0B5
:1011500000070023F0E80256083C85EA010586EA0C
:10116000010685FA47F5A3FA87F586FA47F6A5FA48
:1011700087F68EB9EED1F0BC01F0FF0102F0070254
:1011800032B110F8013B013A83EA010313B1F8D1FF
:101190000020704701387047002D06BF35460338E0
:1011A000073815F0010F07D1013015F4807F02BF19
:1011B000013015F4C03F0130F0BC0138704700BF6A
:1011C00010B5054C237833B9044B13B10448AFF381
:1011D00000800123237010BDF807002000000000EC
:1011E000BCFC000808B5034B1BB103490348AFF32F
:1011F000008008BD00000000FC070020BCFC0008C7
:1012000090B597B004AF03F09DFA00F041F807F1F4
:10121000240407F12C0207F1340107F140003B469A
:10122000029307F10C03019307F11803009323467F
:1012300000F058F8154801F0B1FF97F8463043F038
:1012400080531946114802F0A5FDBA8D07F14003FD
:101250001146184600F090F807F12C03184600F0EC
:1012600097FC07F12C0207F134031146184600F0F1
:10127000ABFB07F1400207F1180107F12403184600
:1012800000F0D2FC014801F0A1FFD3E738080020AC
:1012900080B588B000AF114B48221A800F4B052251
:1012A0005A800E4B06229A800C4B0722DA800B4B99
:1012B00047221A813B462821184604F051FC074872
:1012C00001F046FD07F110031A460449044801F0F5
:1012D0004BFE00BF2037BD4680BD00BF1408002074
:1012E0003808002080B485B000AFF860B9607A603B
:1012F0003B60BB68B4221A80BB684FF434725A80DA
:10130000BB6840F27E429A80BB683C22DA80BB68B0
:1013100078221A81BB6869225A81FB68FF229A7180
:101320007B6801221A803B6800221A703B68002209
:101330005A703B6800229A70BB694FF000021A6035
:10134000BB694FF000025A60BB6900221A723B6A07
:101350004FF400421A803B6A4FF400425A803B6AC5
:1013600032229A803B6A0022DA8000BF1437BD46E1
:101370005DF8047B70470000B0B590B008AFF8602E
:101380000B467B817B8945F25552934267D87B8916
:1013900007EE903AB8EE677ADFEDB36AC7EE267AC9
:1013A000C7ED057A7869FFF78FF802460B464FF0D4
:1013B0000000AE49FEF728FF02460B4610461946CC
:1013C000A7A3D3E90023FFF7D7F802460B46104640
:1013D0001946FFF7A9FB0346DAB2FB681A70D7ED8E
:1013E000057A9FEDA37A67EE877AFCEEE77AC7ED80
:1013F000017A3B79DAB2FB685A70FB6800229A7076
:10140000D7ED057A9FED9A7A67EE877AFCEEE77A58
:10141000C7ED017A3B79DAB2FB68DA707869FFF7D9
:1014200053F802460B464FF000009049FEF7ECFEE1
:1014300002460B461046194689A3D3E90023FFF75D
:101440009BF802460B4610461946FFF76DFB034614
:10145000DAB2FB681A71FB6800225A71D7E07B8907
:101460004AF6AA22934269D87A89824B134407EE3E
:10147000903AB8EEE77ADFED7C6AC7EE267AC7EDE0
:10148000067AFB6800221A70B869FFF71DF8024659
:101490000B464FF000007549FEF7B6FE02460B46BC
:1014A000104619466EA3D3E90023FFF765F80246FC
:1014B0000B4610461946FFF737FB0346DAB2FB68C6
:1014C0005A70D7ED067A9FED6A7A67EE877AFCEE5E
:1014D000E77AC7ED017A3B79DAB2FB689A70FB686C
:1014E0000022DA70D7ED067A9FED617A67EE877A8F
:1014F000FCEEE77AC7ED017A3B79DAB2FB681A7144
:10150000B869FEF7E1FF02460B464FF0000057496D
:10151000FEF77AFE02460B461046194650A3D3E961
:101520000023FFF729F802460B4610461946FFF73D
:10153000FBFA0346DAB2FB685A7168E07A894E4BCF
:10154000134407EE903AB8EEE77ADFED476AC7EE4C
:10155000267AC7ED077AD7ED077A9FED457A67EED1
:10156000877AFCEEE77AC7ED017A3B79DAB2FB685D
:101570001A70FB6800225A70F869FEF7A5FF024650
:101580000B464FF000003949FEF73EFE02460B467F
:101590001046194632A3D3E90023FEF7EDFF0246B9
:1015A0000B4610461946FFF7BFFA0346DAB2FB684E
:1015B0009A70F869FEF788FF02460B464FF000006C
:1015C0002A49FEF721FE02460B461046194624A37F
:1015D000D3E90023FEF7D0FF02460B46104619461A
:1015E000FFF7A2FA0346DAB2FB68DA70FB68002262
:1015F0001A71D7ED077A9FED1E7A67EE877AFCEEB7
:10160000E77AC7ED017A3B79DAB2FB685A714FF09D
:10161000D8511A4802F0BEFB1949184802F0BAFB2B
:10162000FB681B78FA685278F9688978F868C0789E
:10163000FC682479FD686D79069505940490039102
:10164000029201934FF4887300934FF4F0730022D9
:1016500000210A4802F0AEFD00BF2037BD46B0BDF4
:101660000000000000E06F4000AAAA460000F03F22
:1016700000007F43ABAAFFFF5655FFFF380800204C
:101680001081071C90B587B004AF03460A46FB8063
:101690001346BB8049494A4802F07CFB4949484807
:1016A00002F078FBBA88F98805230393002302939C
:1016B0000A230193782300937823414801F098FF8F
:1016C00041493F4802F066FBFB88143399B2BB885E
:1016D00007339AB23D4B0193002300931F233848F0
:1016E00002F0ECFBFB88503399B2BB8807339AB207
:1016F000374B0193002300931F23314802F0DEFB98
:10170000FB88143399B2BB8841339AB2314B0193B1
:10171000002300931F232A4802F0D0FBFB884E339E
:1017200099B2BB8841339AB22B4B019300230093AB
:101730001F23234802F0C2FBFB883C3399B2FB888D
:101740003C3398B2BB8878339BB2BA8805240294A4
:101750000024019400930346194802F03FFBBB8824
:101760003C339AB2FB88783398B2BB883C339BB247
:10177000F98805240294002401940093034610483C
:1017800002F02CFB4FF0A0510D4802F003FB0E4974
:101790000B4802F0FFFAFB881E3B99B2BB888233EC
:1017A0009AB20E4B0193002300931F23044802F0CA
:1017B00085FB00BF0C37BD4690BD00BF0100001483
:1017C0003808002002000003FF000004E0FC0008CD
:1017D000E4FC0008E8FC0008ECFC0008F0FC000851
:1017E00090B587B004AF03460A46FB801346BB8022
:1017F0002D492E4802F0CEFA2D492C4802F0CAFAA3
:10180000BA88F98805230193002300937823274899
:1018100001F0E6FDFB880A3B99B2BB88463B9AB2D1
:10182000FB880A3398B2BB88463B9BB205240294DE
:1018300000240194009303461C4802F0CFFABB88B1
:101840002D3B9BB2F888BA88F988052402940024BD
:10185000019400930346154802F0C0FABA88F9884B
:1018600005230193002300930A23104801F0B8FDDB
:101870004FF0A0510D4802F08DFA0E490B4802F0CE
:1018800089FAFB885F3B99B2BB8846339AB20A4B10
:101890000193002300931F23044802F00FFB00BFB5
:1018A0000C37BD4690BD00BF010000143808002071
:1018B000030000030000FF04FCFC000890B587B0A3
:1018C00004AF03460A46FB801346BB8038493948BB
:1018D00002F060FA3849374802F05CFABA88F988B1
:1018E00005230193002300936423324801F078FD1F
:1018F000FB88193B99B2BB8832339AB20523039314
:1019000000230293052301931E23009332232948C9
:1019100001F06EFEFB88053B99B2BB8855339AB245
:10192000FB88053398B2BB8855339BB205240294DB
:1019300000240194009303461E4802F04FFABB882E
:101940000F339AB2BB8832339BB2F888F9880524EA
:1019500002940024019400930346164802F03EFAD4
:10196000BB880F339AB2F9880523019300230093B3
:101970000523104801F034FD4FF0A0510D4802F04E
:1019800009FA0E490B4802F005FAFB88A03B99B210
:10199000BB8855339AB20A4B0193002300931F234F
:1019A000044802F08BFA00BF0C37BD4690BD00BF63
:1019B00001000014380800200400000300FF0004A8
:1019C00008FD00080000000080B582B000AF78601C
:1019D00039607B681B88B42B1CD13B681B88184678
:1019E000FEF760FD68A3D3E90023FEF7C5FD0246BC
:1019F0000B46104619464FF000025F4BFEF706FCFF
:101A000002460B4610461946FFF78EF803469AB277
:101A10007B68DA807B685B88EF2B03D87B681B8947
:101A2000782B1DD13B681B881846FEF73BFD4AA367
:101A3000D3E90023FEF7A0FD02460B464FF000005D
:101A40004E49FEF7E1FB02460B4610461946FFF7EA
:101A50006BF803469AB27B685A807B6878221A81B9
:101A60007B685B88F02B28D83B681B881846FEF7FC
:101A700019FD4FF00002424BFEF7C6FB02460B4633
:101A80001046194636A3D3E90023FEF775FD02463A
:101A90000B46104619464FF000023A4BFEF7B6FBD4
:101AA00002460B4610461946FFF73EF803469AB227
:101AB0007B681A817B68F0225A807B689B88EF2BB9
:101AC0001AD93B681B881846FEF7ECFC26A3D3E91D
:101AD0000023FEF751FD02460B4625A1D1E9000186
:101AE000FEF792FB02460B4610461946FFF71CF81C
:101AF00003469AB27B689A807B681A887B68DB8889
:101B000019461046FFF7BEFD7B681B89B3F5887F39
:101B100010D87B685B88EF2B0CD97B689B88B3F56A
:101B2000F07F07D37B685A887B681B89194610466B
:101B3000FFF756FE3B681B8844F61F62934207D9A5
:101B40007B689A887B685B8919461046FFF7B6FE6A
:101B500000BF0837BD4680BD1E001E001E008E3F20
:101B6000159014901490843F1C701C701C708C3F56
:101B70000000000000F891400080514000A0894022
:101B8000E0FFDF400000544015A014A014A0843FE3
:101B900080B586B004AF78601E491F4801F09AF8FE
:101BA00002467B685A607B685B68DBB2082B05D114
:101BB0007B685B681B0C9AB27B681A8017491648D1
:101BC00002F0E8F81649144802F0E4F81549124802
:101BD00002F0E0F87B681B884FF6FF7203920293D5
:101BE000002301930C2300934FF4AA731B22462178
:101BF000094802F0AFFB082301930C2300934FF434
:101C0000AA731B224621044802F048FC00BF083793
:101C1000BD4680BD0090100038080020010000146F
:101C2000080000030000FF0480B584B000AFF86036
:101C3000B9607A6019491A4800F0DCFF0346022BAC
:101C400007D1FB6801221A70FB68B968184600F0DA
:101C50002BF81249124800F0CDFF0346032B07D1A1
:101C6000FB6801221A7007F10C03184600F0F4FA21
:101C70000A490B4800F0BEFF0346042B09D1FB685C
:101C800001221A703A1D07F10C030649184600F0AC
:101C9000ABFC00BF1037BD4680BD00BF182510004B
:101CA000380800209408002080B590B008AF786014
:101CB00039600023BB770023FB7707F11403002270
:101CC0001A605A601A8107F1080300221A605A60EC
:101CD0001A8119E1914801F061FA4FF0D8518F480B
:101CE00002F058F88E498D4802F054F87E2306938E
:101CF0007E23059300230493FF2303930023029381
:101D0000002301934FF4887300934FF4F073002283
:101D10000021824802F04EFA042303930023029329
:101D2000052301936E2300934FF4E6730A220A21E0
:101D30007A4801F05DFC7B49784802F02BF87A493B
:101D4000764802F027F87949744802F023F8784B76
:101D5000039300230293142301931423009332234B
:101D6000142214216D4802F009F94FF0A0516B487C
:101D700002F010F86F4B0393002302931423019396
:101D80002B2300934FF4C87380220521634802F08F
:101D900079FA694B039300230293142301932B23B5
:101DA00000934FF4C873AE2205215C4802F06AFA32
:101DB000624B039300230293142301932B2300937C
:101DC0004FF4C873DC220521544802F05BFA5549F0
:101DD000524801F0DFFF5A49504801F0DBFF5349F8
:101DE0004E4801F0D7FF574B03930023029314236F
:101DF00001932B2300934423802240F297114748FC
:101E000002F0BCF84FF0A051444801F0C3FF45492F
:101E1000424801F0BFFF4C49404801F0BBFF4B4B2B
:101E2000039300230293142301932B230093442351
:101E3000AE2240F29711394802F0A0F84FF0A051BD
:101E4000364801F0A7FF3749344801F0A3FF404965
:101E5000324801F09FFF3F4B03930023029314236A
:101E600001932B2300934423DC2240F297112B484B
:101E700002F084F84FF0A051284801F08BFF36495A
:101E8000264800F0B7FE0346BB77BB7F052B10D179
:101E90007B6800221A7007F114030A2200211846F9
:101EA00006F01AFB07F108030A220021184606F083
:101EB00013FBBB7F002B12D0BA7FFB7F9A420ED060
:101EC00007F1080207F11401B87F3B6802937B68B1
:101ED00001930A23009313460A2200F03FF86FF0A3
:101EE0007B410E4801F056FF07F1080301930023E0
:101EF00000931E232D221E21084801F0DFFFBB7F27
:101F0000FB77064801F062F97B681B78002B7FF4B1
:101F1000E1AE00BF00BF2037BD4680BD38080020BD
:101F20001081071C01000014050000033E332F043C
:101F30001CFD000820FD000828FD000830FD0008F9
:101F40004300000338FD0008880000033CFD000842
:101F50002E00000340FD00081825100080B58CB04D
:101F600004AFB9607A603B600346FB73FB7B2F2BA9
:101F700002D9FB7B392B02D9FB7B2E2B40D1B868D1
:101F8000FFF75EF802467B68013B9A4218D2FB7B62
:101F90002E2B06D12E21B86806F0ECFA0346002B52
:101FA0000ED1B868FFF74CF83861BA683B69134442
:101FB000FA7B1A703B690133BA68134400221A7025
:101FC000FB6A5B78002B14D03B6B1B681846FEF74E
:101FD0007BFA02460B46396B097A0846B9680391C9
:101FE0000290CDE90023974AB96A386806F0E4F90F
:101FF00024E1BB68944AB96A386806F0DDF91DE14E
:10200000FB7B2B2B08D0FB7B2D2B05D0FB7B782B70
:1020100002D0FB7B2F2B33D1FB6A5B7883F001036B
:10202000DBB2002B00F00981BB681B78002B00F0AD
:102030000481B86805F00EF853EC102B10461946D1
:10204000FEF792FD02463B6B1A603B6BFA7B1A72FD
:10205000FB6A01225A70BB6800221A703B6B1B6836
:102060001846FEF731FA02460B46396B097A02919F
:10207000CDE90023754AB96A386806F09DF9DCE0BD
:10208000FB7B3D2B40F08E80FB6A5B78002B00F0E1
:10209000D580BB681B78002B00F0D080B86804F0B6
:1020A000D9FF53EC102B10461946FEF75DFD024692
:1020B0003B6B5A604FF00003FB610023FB763B6BE8
:1020C0001B7A782B20D0782B3FDC2F2B27D02F2B7F
:1020D0003BDC2B2B02D02D2B0BD036E03B6B93ED52
:1020E000007A3B6BD3ED017A77EE277AC7ED077A5A
:1020F0002BE03B6B93ED007A3B6BD3ED017A77EEEF
:10210000677AC7ED077A20E03B6B93ED007A3B6B73
:10211000D3ED017A67EE277AC7ED077A15E03B6BBE
:10212000D3ED017AF5EE407AF1EE10FA0AD03B6B6E
:10213000D3ED006A3B6B93ED017AC6EE877AC7ED6B
:10214000077A01E00123FB7600BFFB7E002B0AD05B
:102150003F4A7968B86806F02FF93D4AB96A38688D
:1021600006F02AF917E0F869FEF7AEF902460B46C9
:10217000CDE90023374A7968B86806F01DF9F86997
:10218000FEF7A2F902460B46CDE90023314AB96AAF
:10219000386806F011F9FB6A00225A70FB6A0122C6
:1021A0009A704BE0FB7B432B17D13B6B4FF0000247
:1021B0005A603B6B5A683B6B1A603B6B00221A7289
:1021C000FB6A00225A70FB6A00229A70BB680022E8
:1021D0001A703B6800221A7030E0FB7B882B2DD1EF
:1021E000B868FEF72DFF78617B69002B26D07B69EC
:1021F000013BBA68134400221A70FB6A5B78002B1B
:1022000014D03B6B1B681846FEF75EF902460B467E
:10221000396B097A0846B96803910290CDE9002329
:10222000084AB96A386806F0C7F807E0BB68064A8A
:10223000B96A386806F0C0F800E000BF00BF203778
:10224000BD4680BD44FD00084CFD000850FD00085F
:1022500058FD00085CFD000880B58AB008AF7860C2
:102260000B4B00229A700A4B00225A70084B002236
:102270001A70074B00225A71054B0022DA70044B8A
:1022800000221A714FF47A7000F094FB9BE100BFBA
:1022900088080020B04800F081FF4FF0D851AE48C8
:1022A00001F078FDAD49AC4801F074FD962306932A
:1022B00096230593962304933223039332230293A8
:1022C000322301934FF4887300934FF4F07300228C
:1022D0000021A14801F06EFFA14B1B7A1A46A04BCA
:1022E0009B781946002304930391002302930192E3
:1022F0004FF480430093462379225A21964801F0F7
:10230000A5FE974B1B7A1A46954B5B78194600231E
:10231000049303910023029301924FF480430093AE
:1023200046237922F0218C4801F090FE8C4B1B7AD9
:102330001A468B4B1B781946002304930391002304
:10234000029301924FF480430093462379224FF485
:10235000C371814801F07AFE82497F4801F01AFD7D
:1023600081497D4801F016FD804B039300230293C1
:10237000142301931423009332230A220A2176485E
:1023800001F0FCFD4FF0A051734801F003FD7549C9
:10239000714801F0FFFC76496F4801F0FBFC754B7A
:1023A0000393002302931E2301933223009364239B
:1023B000CD222821684801F0E1FD4FF0A051664888
:1023C00001F0E8FC6749644801F0E4FC6A496248AE
:1023D00001F0E0FC694B0393002302931E23019359
:1023E000322300936423CD22BE215B4801F0C6FD59
:1023F0004FF0A051584801F0CDFC5A49564801F021
:10240000C9FC5F49544801F0C5FC5E4B03930023AF
:1024100002931E230193322300936423CD224FF4B1
:10242000AA714D4801F0AAFD4FF0A0514A4801F0B1
:10243000B1FC6FF07B41484801F0ACFC524B01937A
:10244000002300931A2384224B21434801F036FDD8
:102450004E4B0193002300931A238422D7213E4838
:1024600001F02CFD4A4B0193002300931A23842290
:1024700040F26D11384801F021FD4649364800F020
:10248000B9FB0346052B0ED17B6800221A707B68CE
:102490000022DA70324B00221A72314B00229A71FC
:1024A0002F4B0022DA713B492B4800F0A3FB034677
:1024B000092B21D17B68DB7883F00103DBB2002B91
:1024C0000BD07B680122DA70254B00221A72244B54
:1024D0000022DA71224B00229A717B6801221A7164
:1024E0001F4B5A791E4B1A721D4B1A791C4BDA710D
:1024F0001B4BDA781A4B9A712649174800F07AFB81
:1025000003460A2B0ED17B6800221A71144B1A78ED
:10251000134BDA70124B5A78114B1A71104B9A7890
:102520000F4B5A711B490C4800F064FB03460B2B00
:1025300032D10B4B00229A70094B00225A70084B83
:1025400000221A70064B00221A72054B0022DA7123
:10255000034B00229A711FE0380800201081071CED
:102560008808002001000014050000031CFD00087D
:102570000900000360FD00080A00000368FD000870
:102580000B00000370FD000878FD000880FD0008C6
:1025900088FD0008182510007B68DB78002B0FD021
:1025A0007B681B79002B0BD00C4B1A7A0B4B9A7063
:1025B0000A4BDA79094B5A70084B9A79074B1A7013
:1025C000074800F003FE7B681B78002B7FF462AEA7
:1025D00000BF00BF0837BD4680BD00BF880800208F
:1025E000380800200000000080B58EB008AFF86009
:1025F000B9607A6095E1B64800F0D0FD4FF0D8514F
:10260000B34801F0C7FBB349B14801F0C3FB1E2337
:1026100006932523059327230493002303932F2355
:102620000293FF2301934FF4887300934FF4F073E8
:1026300000220021A64801F0BDFDA749A44801F0F1
:10264000A9FBA649A24801F0A5FBA54B03930023D3
:102650000293142301931423009332230A220A21A4
:102660009B4801F08BFC4FF0A051994801F092FB80
:102670009C49974800F0BEFA03461A46BB689A6028
:102680009549934801F086FB9749914801F082FBF8
:10269000BB681B880193002300933223B4225A2184
:1026A0008B4801F0ADFE0623019301230093012323
:1026B000B4225A21864801F0F1FE8B49844801F08A
:1026C00069FB4FF0A051824801F064FB82498048C9
:1026D00001F060FB85497E4801F05CFBBB685B88CC
:1026E0000193002300933223B4224FF4C37178483E
:1026F00001F086FE07230193012300930123B422F6
:102700004FF4C371724801F0C9FE7849704801F076
:1027100041FB4FF0A0516E4801F03CFBBB689B8829
:10272000642204920393042302930523019300235C
:1027300000933C236422AA21654801F0E1FCBB68B8
:102740009B8864220492039304230293052301933C
:10275000002300933C2364224FF49B715C4801F0FA
:10276000CFFCBB689B68DBB2062B20D1BB681B8803
:10277000632B1CD9BB681B884FF6DC72934216D8BA
:10278000BB689B681B0C9AB2BB681A80BB681B882D
:102790004FF6DC72934203D9BB684FF6DC721A80A5
:1027A000BB681B88632B02D8BB6864221A80BB6895
:1027B0009B68DBB2072B05D1BB689B681B0C9AB2E8
:1027C000BB685A80BB681B8807EE903AB8EE677A00
:1027D000DFED476AC7EE267A9FED467A67EE877A85
:1027E000FCEEE77AC7ED007A3B78FB75FB7D0B2B9F
:1027F00001D80C23FB75FB7D1A463F49344800F095
:102800004EF9FB7D07EE903AB8EE677ADFED396A54
:10281000C7EE267A9FED397A67EE877AFCEEE77A83
:1028200017EE903A9AB2BB689A80BB685B8807EE55
:10283000903AF8EE677A17EE900AFDF745FE20A36E
:10284000D3E90023FDF7C2FF02460B4610461946A6
:102850001DA3D3E90023FDF78FFE02460B46104669
:102860001946FEF761F90346DAB27B689A717B6814
:102870009B79192B02D87B681A229A717B689B7905
:1028800007EE903AF8EE677A17EE900AFDF71CFE15
:102890000DA3D3E90023FDF799FF02460B4610462E
:1028A00019464FF00002164BFDF766FE02460B4636
:1028B00010461946FEF738F90346DBB21A4621E006
:1028C00000000000E0FFEF400000000000E06F406B
:1028D000380800201081071C0100001405000003C7
:1028E0001CFD000800901000060000030700000314
:1028F00000FF7F4700000043C42410000000C842CE
:1029000000005940BB68DA800B490C4800F072F9AE
:102910000346052B02D1FB6800221A70074800F01D
:1029200055FCFB681B78002B7FF465AE00BF00BF31
:102930001837BD4680BD00BF18251000380800209C
:1029400080B483B000AF78607B6803F01F02074952
:102950007B685B09012000FA02F241F8232000BFE6
:102960000C37BD465DF8047B704700BF00E100E016
:1029700080B483B000AF786039607B68002B08DBDF
:102980003B68DAB206497B685201D2B20B4483F845
:10299000002300BF0C37BD465DF8047B704700BFC5
:1029A00000E100E080B400AF00BFBD465DF8047BED
:1029B0007047000080B584B000AF7860164B1B688C
:1029C000154A43F01003136040F21B23FB60134AC7
:1029D0007B68B2FBF3F3013BBB60FB689AB2104B20
:1029E0009A62BB689AB20E4BDA620D4BDB680C4AF6
:1029F00043F00103D36002213620FFF7B9FF3620F0
:102A0000FFF79EFF064B1B68054A43F00103136066
:102A100000BF1037BD4680BD40380240A08601008F
:102A20000010004080B500AF074B1B6903F00103A5
:102A3000002B07D0044B1B69034A23F001031361E9
:102A4000FFF7B0FF00BF80BD00100040DFF834D0BA
:102A50000D480E490E4A002302E0D458C4500433F6
:102A6000C4188C42F9D30B4A0B4C002301E01360CD
:102A70000432A242FBD301F003FE05F07FFEFEF715
:102A8000BFFB70470000052000000020F807002071
:102A900028080108F80700202C0C0020FEE780B56C
:102AA00084B000AFF860B9601346FB71FB681C335B
:102AB0001B68002B09D0FB681C339B881946FB68F8
:102AC0001C331B681A460B049361B968F86800F060
:102AD000D5FBFB791946F86800F08EFBFB681C33C8
:102AE0001B68002B06D0FB681C339A88FB681C33DC
:102AF0001B689A6100BF1037BD4680BD80B584B0A9
:102B000000AFF860B9601346FB80FB681C331B689C
:102B1000002B09D0FB681C339B881946FB681C33CB
:102B20001B681A460B049361B968F86800F0A6FBAD
:102B3000FB88DBB21946F86800F05EFBFB881B0AD5
:102B40009BB2DBB21946F86800F056FBFB681C33F9
:102B50001B68002B06D0FB681C339A88FB681C336B
:102B60001B689A6100BF1037BD4680BD80B584B038
:102B700000AFF860B9607A60FB681C331B68002BFB
:102B800009D0FB681C339B881946FB681C331B6803
:102B90001A460B049361B968F86800F06FFB7B6814
:102BA000DBB21946F86800F027FB7B681B0ADBB232
:102BB0001946F86800F020FB7B681B0CDBB2194655
:102BC000F86800F019FB7B681B0EDBB21946F86849
:102BD00000F012FBFB681C331B68002B06D0FB685F
:102BE0001C339A88FB681C331B689A6100BF10373E
:102BF000BD4680BD80B584B000AF786039607B6829
:102C00001C331B68002B09D07B681C339B8819463A
:102C10007B681C331B681A460B049361396878681B
:102C200000F04CFB0021786800F0E6FA7B6807F1C1
:102C30000C010122184603F0D3F87B681C331B6893
:102C4000002B06D07B681C339A887B681C331B687A
:102C50009A613B7B18461037BD4680BD80B584B075
:102C600000AF786039607B681C331B68002B09D08B
:102C70007B681C339B8819467B681C331B681A468B
:102C80000B0493613968786800F018FB00217868BC
:102C900000F0B2FA7B6807F10C010222184603F03B
:102CA0009FF87B681C331B68002B06D07B681C33A5
:102CB0009A887B681C331B689A617B7B1BB21B0262
:102CC0001AB23B7B1BB213431BB29BB218461037A0
:102CD000BD4680BD80B584B000AF786039607B6848
:102CE0001C331B68002B09D07B681C339B8819465A
:102CF0007B681C331B681A460B049361396878683B
:102D000000F0DCFA0021786800F076FA7B6807F1C1
:102D10000C010422184603F063F87B681C331B681F
:102D2000002B06D07B681C339A887B681C331B6899
:102D30009A61FB7B1A06BB7B1B041A437B7B1B023D
:102D400013433A7B134318461037BD4680BD00003D
:102D500080B582B000AF78607B680C33184602F013
:102D600073FF7B685A887B68DA817B689A887B6806
:102D70001A827B68DA887B685A827B68094A5A61C2
:102D80007B6800221A767B6800221A737B684FF4F6
:102D900088729A837B684FF4F072DA8300BF083739
:102DA000BD4680BD20AA440080B582B000AF7860E7
:102DB00039600021786800F02FFA4421786800F02B
:102DC0002BFA6221786800F027FA4FF4097239492A
:102DD0007868FFF793FE2B2237497868FFF78EFE5D
:102DE000002236497868FFF789FE2922344978683D
:102DF000FFF784FE4FF4927232497868FFF77EFE47
:102E00000C2231497868FFF779FE00222F49786853
:102E1000FFF774FE0A222E497868FFF76FFE012241
:102E20002C497868FFF73BFE3B68DB8B1A462A4942
:102E30007868FFF763FE3B689B8B1A4627497868E2
:102E4000FFF75CFE002226497868FFF728FE6FF046
:102E50007D424FF480117868FFF788FE214A2249AD
:102E60007868FFF783FE002220497868FFF77EFE2E
:102E700002221F497868FFF712FE80221D497868F8
:102E8000FFF70DFE80221C497868FFF708FEFA2242
:102E90001A497868FFF732FE802219497868FFF7EF
:102EA000FEFD052217497868FFF7F9FD00BF0837D6
:102EB000BD4680BD282410002C24100034241000AE
:102EC000382410003C241000402410004824100036
:102ED0004C241000682410003024100044241000FA
:102EE00064241000070000260400100008001000F1
:102EF000502410008C24100090241000C0241000D6
:102F0000C42410006C24100080B483B000AF78603B
:102F100039603B6805221A7000BF0C37BD465DF86A
:102F2000047B704780B483B000AF78607B6893F80F
:102F30002C3018460C37BD465DF8047B704780B4D2
:102F400083B000AF786039603B6801229A773A68B5
:102F50007B682E33196811609B88938000BF0C3703
:102F6000BD465DF8047B704780B584B000AFF86063
:102F7000B9607A60FB6803F11C02BB681B881946C4
:102F8000104602F0EDFDFB6803F12402BB681B89CB
:102F90001946104602F0E4FDFA68BB680C33194686
:102FA000104602F075FEFA68BB685B691946104668
:102FB00002F084FEFB6824331B68002B09D0FB68F9
:102FC00024339B881946FB6824331B681A460B047C
:102FD0009361142001F0A4FBFB6824331B68002BD1
:102FE00006D0FB6824339A88FB6824331B689A61F7
:102FF000142001F095FBB968F868FFF7D5FE0121B0
:10300000F86800F019F87B68074A1A607B68074A7D
:103010005A607B68064A9A607B68064ADA6000BF9D
:103020001037BD4680BD00BF252F00083F2F000888
:10303000092F0008E130000880B584B002AF786045
:103040000B46FB70002221497868FFF728FD0A2013
:1030500001F066FBFB78002B2ED06FF0FF01786843
:1030600000F098FE4FF00071786800F093FE184968
:10307000786800F08FFE174B0193002300931B2309
:1030800078225021786800F019FF6FF0EA01786823
:1030900000F080FE6FF0FE01786800F07BFE0E4BC2
:1030A0001B881A460D497868FFF728FD786800F0FC
:1030B00051F8642001F034FB032204497868FFF7DB
:1030C000EEFC00BF0837BD4680BD00BF04211000E4
:1030D0000700002690FD0008A0080020E82410004A
:1030E00080B584B000AF7860786800F007F80346D8
:1030F000FB73FB7B18461037BD4680BD80B584B09E
:1031000000AF786012497868FFF7E4FDF860FB686B
:10311000B3F1802F0DD0FB681B0C9AB27B68DA8567
:10312000FB689AB27B681A867B68042283F82C209D
:1031300009E07B680022DA857B6800221A867B68BA
:10314000032283F82C20002318461037BD4680BD8B
:103150001025100080B584B000AF78600D49786804
:10316000FFF77CFD0346FB810B497868FFF776FD8E
:103170000346BB8100BF07497868FFF76FFD034630
:103180001A46BB899342F6D100BF00BF1037BD4637
:1031900080BD00BFE4241000E824100080B582B098
:1031A00000AF78606FF0FF01786800F0F3FD6FF01A
:1031B0007D41786800F0EEFD0349786800F0EAFD93
:1031C00000BF0837BD4680BD0700002680B582B02D
:1031D00000AF78600021786800F0DCFD6FF0FE0140
:1031E000786800F0D7FD034B00221A8000BF083733
:1031F000BD4680BDA008002080B582B000AF7860D9
:103200000B46FB707B68F91C0122184602F094FD06
:1032100000BF0837BD4680BD80B582B000AF786082
:103220000B46FB707B681C331B68002B09D07B6846
:103230001C339B8819467B681C331B681A460B0499
:103240009361FB7819467868FFF7D6FF002178680C
:10325000FFF7D2FF00217868FFF7CEFF7B681C33B1
:103260001B68002B06D07B681C339A887B681C3354
:103270001B689A6100BF0837BD4680BD80B582B02B
:1032800000AF786039603B681B0CDBB263F07F03F2
:10329000DBB219467868FFF7AFFF3B681B0ADBB269
:1032A00019467868FFF7A8FF3B68DBB219467868D3
:1032B000FFF7A2FF00BF0837BD4680BD80B582B0D2
:1032C00000AF786039603B681B0CDBB21946786848
:1032D000FFF792FF3B681B0ADBB219467868FFF7DD
:1032E0008BFF3B68DBB219467868FFF785FF00BFAC
:1032F0000837BD4680BD000080B584B000AF0346EE
:103300003960FB8032493868FDF78AFC0346002BA0
:1033100016D1FB88DB0A9BB203F01F031846FDF7AA
:10332000B1F827A3D3E90023FDF726F902460B469F
:1033300010461946FDF7F8FB03467B737B7B39E0AB
:1033400024493868FDF76CFC0346002B16D1FB8836
:103350005B099BB203F03F031846FDF793F81AA3ED
:10336000D3E90023FDF708F902460B46104619463B
:10337000FDF7DAFB0346BB73BB7B1BE016493868DD
:10338000FDF74EFC0346002B14D1FB8803F01F030E
:103390001846FDF777F80AA3D3E90023FDF7ECF808
:1033A00002460B4610461946FDF7BEFB0346FB736B
:1033B000FB7BFFE718461037BD4680BDAFF30080AA
:1033C00074CE39E79C7320400CC3300CC3301040DE
:1033D000ACFD0008B0FD0008B8FD000800000000CA
:1033E0002DE9B0438AB000AFF860084611461A468E
:1033F00003467B810B463B811346FB80FB881846C6
:10340000FDF750F84FF000024FF08043FDF7DEF972
:1034100002460B4610461946FDF7A6FB03463B62E3
:10342000B7F840306C491846FFF766FF03461C04A6
:10343000B7F8403069491846FFF75EFF03461B02A4
:103440001C43B7F8403066491846FFF755FF03465E
:10345000234343F080631946F86800F09BFCB7F8FB
:1034600044301B0103F47F6343F060631946F8683E
:1034700000F090FC5B49F86800F08CFC6423FB834F
:103480000023FB8493E0FB8C1846FDF70BF850A358
:10349000D3E90023FDF770F802460B4614461D469B
:1034A000FB8B1846FCF7FEFF02460B4620462946DA
:1034B000FDF78CF902460B4610461946FDF754FB02
:1034C0000346BB617B891846FCF7ECFF04460D46BA
:1034D000386AFCF7F9FF80468946B869FCF7F4FFC3
:1034E00002460B4643EC102B01F042F953EC102B33
:1034F00040464946FDF740F802460B46204629461D
:10350000FCF784FE02460B4610461946FDF72CFBDD
:1035100003467B613B891846FCF7C4FF04460D4611
:10352000386AFCF7D1FF80468946B869FCF7CCFFC2
:1035300002460B4643EC102B01F05EF953EC102BC6
:1035400040464946FDF718F802460B4620462946F4
:10355000FCF75CFE02460B4610461946FDF704FBDD
:1035600003463B61D7ED057AB3EE007A67EE877AC2
:10357000FCEEE77A17EE903A9BB2DA031A4B13404F
:10358000D7ED047AB3EE007A67EE877AFCEEE77A3D
:1035900017EE902A92B2C2F30E02134343F0804317
:1035A0001946F86800F0F6FBFB8C0133FB84FA8CBB
:1035B000FB8B9A427FF667AF4FF00451F86800F03A
:1035C000E9FB00BF2837BD46BDE8B083AFF30080FC
:1035D0006E861BF0F9211940ACFD0008B0FD000813
:1035E000B8FD00080400001F0080FF3F000000003D
:1035F0002DE9B0438CB000AFF860084611461A467A
:1036000003467B810B463B811346FB80B7F8503065
:103610008A491846FFF770FE034687F82E30B7F840
:10362000503087491846FFF767FE034687F82D306C
:10363000B7F8503083491846FFF75EFE034687F817
:103640002C307A89FB8813447B853A89B7F8483057
:1036500013443B850A2387F82730B7F84C305B00CA
:10366000A7F84C30FB885B089BB2B7F84C209A4215
:1036700003D9FB885B08A7F84C30B7F848305B08E3
:103680009BB2B7F84C209A4204D9B7F848305B088F
:10369000A7F84C3097F82E301A0497F82D301B02FB
:1036A0001A4397F82C30134343F080631946F868A7
:1036B00000F070FB97F854301B0103F47F6343F074
:1036C00060631946F86800F065FB5F49F86800F030
:1036D00061FB7A89B7F84C3013441B01DB035B4A6A
:1036E0001A403B891B01194647F6F0730B40134300
:1036F00043F080431946F86800F04CFB7A8DB7F828
:103700004C30D31A1B01DB03504A1A403B891B0182
:10371000194647F6F0730B40134343F080431946B4
:10372000F86800F037FB7A89B7F84C3013441B0176
:10373000DB03464A1A403B8D1B01194647F6F073DE
:103740000B40134343F080431946F86800F022FB16
:103750007A8DB7F84C30D31A1B01DB033B4A1A4071
:103760003B8D1B01194647F6F0730B40134343F0A2
:1037700080431946F86800F00DFB7B891B01DB03D1
:10378000324A1A403989B7F84C300B441B011946AC
:1037900047F6F0730B40134343F080431946F86833
:1037A00000F0F8FA7B891B01DB03284A1A40398DA7
:1037B000B7F84C30CB1A1B01194647F6F0730B4093
:1037C000134343F080431946F86800F0E3FA7B8D19
:1037D0001B01DB031D4A1A403989B7F84C300B44F2
:1037E0001B01194647F6F0730B40134343F0804327
:1037F0001946F86800F0CEFA7B8D1B01DB03134AF3
:103800001A40398DB7F84C30CB1A1B01194647F6D0
:10381000F0730B40134343F080431946F86800F0FF
:10382000B9FA4FF00451F86800F0B4FA0849F868A2
:1038300000F0B0FA002387F82F309BE0ACFD0008C1
:10384000B0FD0008B8FD00080300001F0000F83FAD
:103850000400001F97F82F3007EE903AB8EEE77A91
:1038600097F8273007EE903AF8EE677AC7EE276AA6
:1038700016EE900AFCF728FEEDA3D3E90023FCF72F
:103880007BFE02460B4610461946FDF76DF90346CE
:103890003B627A89B7F84C3013441846FCF702FEB5
:1038A00004460D46B7F84C301846FCF7FBFD804641
:1038B0008946386AFCF708FE02460B4643EC102B9B
:1038C00000F056FF53EC102B40464946FCF754FEDF
:1038D00002460B4620462946FCF796FC02460B465C
:1038E00010461946FDF720F903467B823A89B7F85E
:1038F0004C3013441846FCF7D5FD04460D46B7F886
:103900004C301846FCF7CEFD80468946386AFCF7F5
:10391000DBFD02460B4643EC102B00F06DFF53EC31
:10392000102B40464946FCF727FE02460B46204630
:103930002946FCF769FC02460B4610461946FDF77E
:10394000F3F803463B827B8A1B01DB03BA4A1A4029
:103950003B8A1B01194647F6F0730B40134343F0B3
:1039600080431946F86800F015FA97F82F300133B4
:1039700087F82F3097F82F2097F827309A427FF654
:1039800069AF4FF00451F86800F004FAAB49F868E9
:1039900000F000FA002387F82F308FE097F82F30DF
:1039A00007EE903AB8EEE77A97F8273007EE903AAC
:1039B000F8EE677AC7EE276A16EE900AFCF784FDE8
:1039C0009BA3D3E90023FCF7D7FD02460B46104624
:1039D0001946FDF7C9F803463B627A8DB7F84C30BB
:1039E000D31A1846FCF75EFD04460D46B7F84C3076
:1039F0001846FCF757FD80468946386AFCF764FD97
:103A000002460B4643EC102B00F0F6FE53EC102B55
:103A100040464946FCF7B0FD02460B462046294683
:103A2000FCF7F4FB02460B4610461946FDF77CF8FE
:103A30000346FB823A89B7F84C3013441846FCF72A
:103A400031FD04460D46B7F84C301846FCF72AFD08
:103A500080468946386AFCF737FD02460B4643EC40
:103A6000102B00F085FE53EC102B40464946FCF726
:103A700083FD02460B4620462946FCF7C5FB02465D
:103A80000B4610461946FDF74FF80346BB82FB8AEA
:103A90001B01DB03684A1A40BB8A1B01194647F623
:103AA000F0730B40134343F080431946F86800F06D
:103AB00071F997F82F30013387F82F3097F82F20BE
:103AC00097F827309A427FF669AF4FF00451F868B3
:103AD00000F060F95949F86800F05CF9002387F8B4
:103AE0002F308FE097F82F3007EE903AB8EEE77A54
:103AF00097F8273007EE903AF8EE677AC7EE276A14
:103B000016EE900AFCF7E0FC49A3D3E90023FCF78A
:103B100033FD02460B4610461946FDF725F80346CD
:103B20003B627A8DB7F84C30D31A1846FCF7BAFCD2
:103B300004460D46B7F84C301846FCF7B3FC8046F7
:103B40008946386AFCF7C0FC02460B4643EC102B52
:103B500000F00EFE53EC102B40464946FCF70CFDDE
:103B600002460B4620462946FCF750FB02460B4610
:103B700010461946FCF7D8FF03467B833A8DB7F809
:103B80004C30D31A1846FCF78DFC04460D46B7F8A6
:103B90004C301846FCF786FC80468946386AFCF7AC
:103BA00093FC02460B4643EC102B00F025FE53EC31
:103BB000102B40464946FCF7DFFC02460B462046E8
:103BC0002946FCF723FB02460B4610461946FCF734
:103BD000ABFF03463B837B8B1B01DB03164A1A407A
:103BE0003B8B1B01194647F6F0730B40134343F020
:103BF00080431946F86800F0CDF897F82F3001336C
:103C000087F82F3097F82F2097F827309A427FF6C1
:103C100069AF4FF00451F86800F0BCF80749F86844
:103C200000F0B8F8002387F82F3099E0AFF3008058
:103C30006E861BF0F921F93F0000F83F0400001FD9
:103C400097F82F3007EE903AB8EEE77A97F82730DA
:103C500007EE903AF8EE677AC7EE276A16EE900AFA
:103C6000FCF732FC49A3D3E90023FCF785FC0246AC
:103C70000B4610461946FCF777FF03463B627A89EC
:103C8000B7F84C3013441846FCF70CFC04460D46BC
:103C9000B7F84C301846FCF705FC80468946386A70
:103CA000FCF712FC02460B4643EC102B00F0A4FD7F
:103CB00053EC102B40464946FCF75EFC02460B468F
:103CC00020462946FCF7A0FA02460B461046194644
:103CD000FCF72AFF0346FB833A8DB7F84C30D31A22
:103CE0001846FCF7DFFB04460D46B7F84C30184683
:103CF000FCF7D8FB80468946386AFCF7E5FB0246AC
:103D00000B4643EC102B00F033FD53EC102B4046D8
:103D10004946FCF731FC02460B4620462946FCF793
:103D200075FA02460B4610461946FCF7FDFE03469F
:103D3000BB83FB8B1B01DB03134A1A40BB8B1B01AC
:103D4000194647F6F0730B40134343F0804319467E
:103D5000F86800F01FF897F82F30013387F82F30FC
:103D600097F82F2097F827309A427FF669AF4FF0E7
:103D70000451F86800F00EF800BF3037BD46BDE8CA
:103D8000B08300BFAFF300800000F83F6E861BF0E9
:103D9000F921F93F80B582B000AF786039600D4BF2
:103DA0001B8803F584133A6819467868FEF7DEFE2F
:103DB000084B1B8804339AB2064B1A80054B1B88AC
:103DC0001A4605497868FEF799FE00BF0837BD46D8
:103DD00080BD00BFA0080020E824100090B585B089
:103DE00000AFF860084611461A4603467B810B4631
:103DF0003B811346FB802C49F868FFF7CBFF97F80F
:103E000028301B0103F47F6343F060631946F868B0
:103E1000FFF7C0FFBB8C25491846FFF76DFA034634
:103E20001C04BB8C22491846FFF766FA03461B02A6
:103E30001C43BB8C1F491846FFF75EFA0346234319
:103E400043F080631946F868FFF7A4FF7B891B01E4
:103E5000DB03194A1A403B891B01194647F6F073E8
:103E60000B40134343F080431946F868FFF792FF75
:103E7000FB881B01DB03104A1A403B8C1B011946CF
:103E800047F6F0730B40134343F080431946F8683C
:103E9000FFF780FF4FF00451F868FFF77BFF00BF8A
:103EA0001437BD4690BD00BF0300001FC0FD0008D1
:103EB000C4FD0008CCFD00080000F83F80B584B0C8
:103EC00000AFF860084611461A4603467B810B4650
:103ED0003B811346FB806FF0F301F868FFF75AFF50
:103EE0003B891A047B8913431946F868FFF752FF90
:103EF0003B8B1A04FB8813431946F868FFF74AFF07
:103F000011E01C4B1B8803F58411FB695A1CFA61F4
:103F10001B781A46F868FEF7C2FD164B1B88013362
:103F20009AB2144B1A80FB691B78002BE9D1114B14
:103F30001B8803F5841300221946F868FEF7AFFDCD
:103F40000C4B1B8801339AB20A4B1A80094B1B8811
:103F500003339BB223F003039AB2064B1A80054B3E
:103F60001B881A460449F868FEF7C8FD00BF1037E1
:103F7000BD4680BDA0080020E824100080B584B0B4
:103F800000AFF860084611461A4603467B810B468F
:103F90003B811346FB806FF0F201F868FFF7FAFEF1
:103FA0003B891A047B8913431946F868FFF7F2FE30
:103FB0003B8B1A04FB8813431946F868FFF7EAFEA7
:103FC0003B8C1A04BB8B13431946F868FFF7E2FEDB
:103FD00011E01C4B1B8803F584117B6A5A1C7A6222
:103FE0001B781A46F868FEF75AFD164B1B880133FA
:103FF0009AB2144B1A807B6A1B78002BE9D1114BC3
:104000001B8803F5841300221946F868FEF747FD64
:104010000C4B1B8801339AB20A4B1A80094B1B8840
:1040200003339BB223F003039AB2064B1A80054B6D
:104030001B881A460449F868FEF760FD00BF103778
:10404000BD4680BDA0080020E824100080B584B0E3
:1040500000AFF860084611461A4603467B810B46BE
:104060003B811346FB806FF0EB01F868FFF792FE8F
:104070003B891A047B8913431946F868FFF78AFEC7
:104080003B8B1A04FB8813431946F868FFF782FE3E
:104090003B8C1A04BB8B13431946F868FFF77AFE72
:1040A0003B8D1A04BB8C13431946F868FFF772FE68
:1040B000114B1B8803F5841300221946F868FEF79C
:1040C000EEFC0D4B1B8801339AB20B4B1A800A4B46
:1040D0001B8803339BB223F003039AB2064B1A806A
:1040E000054B1B881A460549F868FEF73FFD00BFDF
:1040F0001037BD4680BD00BFA0080020E824100096
:1041000080B584B000AFF860084611461A460346F1
:104110007B810B463B811346FB806FF0EC01F86816
:10412000FFF738FE3B891A047B8913431946F86868
:10413000FFF730FE3B8B1A04FB8813431946F868DF
:10414000FFF728FE3B8C1A04BB8B13431946F86813
:10415000FFF720FE3B8D1A04BB8C13431946F86809
:10416000FFF718FE114B1B8803F584130022194634
:10417000F868FEF794FC0D4B1B8801339AB20B4B89
:104180001A800A4B1B8803339BB223F003039AB2B5
:10419000064B1A80054B1B881A460549F868FEF73E
:1041A000E5FC00BF1037BD4680BD00BFA008002061
:1041B000E824100080B584B000AFF86008461146CE
:1041C0001A4603467B810B463B811346FB806FF00A
:1041D000F401F868FFF7DEFD7B891A043B8913437D
:1041E0001946F868FFF7D6FD3B7F1A0497F8203090
:1041F0001B021A4397F82430134343F08063194697
:10420000F868FFF7C7FDFB881A043B8B1343194678
:10421000F868FFF7BFFD97F828301A0497F82C309C
:104220001B021A4397F83030134343F0806319465A
:10423000F868FFF7AFFD114B1B8803F584130022CC
:104240001946F868FEF72BFC0C4B1B8801339AB219
:104250000A4B1A80094B1B8803339BB223F00303DC
:104260009AB2064B1A80054B1B881A460449F86817
:10427000FEF744FC00BF1037BD4680BDA0080020FB
:10428000E824100080B584B000AFF86008461146FD
:104290001A4603467B810B463B811346FB806FF039
:1042A000F101F868FFF776FD3B891A047B89134317
:1042B0001946F868FFF76EFD3B8B1A04FB88134321
:1042C0001946F868FFF766FD3B8C1A04BB8B134355
:1042D0001946F868FFF75EFD11E01C4B1B8803F5DB
:1042E00084117B6A5A1C7A621B781A46F868FEF7BA
:1042F000D6FB164B1B8801339AB2144B1A807B6A8B
:104300001B78002BE9D1114B1B8803F58413002285
:104310001946F868FEF7C3FB0C4B1B8801339AB2B1
:104320000A4B1A80094B1B8803339BB223F003030B
:104330009AB2064B1A80054B1B881A460449F86846
:10434000FEF7DCFB00BF1037BD4680BDA008002093
:10435000E824100080B584B000AFF860084611462C
:104360001A4603467B810B463B811346FB806FF068
:10437000EF01F868FFF70EFD3B891A047B891343B0
:104380001946F868FFF706FD3B8B1A04FB881343B8
:104390001946F868FFF7FEFC3B8C1A04BB8B1343ED
:1043A0001946F868FFF7F6FCBB8C1946F868FFF76A
:1043B000F1FC114B1B8803F5841300221946F868A1
:1043C000FEF76DFB0C4B1B8801339AB20A4B1A8027
:1043D000094B1B8803339BB223F003039AB2064BAD
:1043E0001A80054B1B881A460449F868FEF786FBBD
:1043F00000BF1037BD4680BDA0080020E824100093
:1044000080B584B000AFF860084611461A460346EE
:104410007B810B463B811346FB806FF0D201F8682D
:10442000FFF7B8FC3B891A047B8913431946F868E7
:10443000FFF7B0FC3B8B1A04FB8813431946F8685E
:10444000FFF7A8FCBB8B1946F868FFF7A3FC114BDC
:104450001B8803F5841300221946F868FEF71FFB3A
:104460000C4B1B8801339AB20A4B1A80094B1B88EC
:1044700003339BB223F003039AB2064B1A80054B19
:104480001B881A460449F868FEF738FB00BF10374E
:10449000BD4680BDA0080020E824100080B584B08F
:1044A00000AFF860084611461A4603467B810B466A
:1044B0003B811346FB806FF0D301F868FFF76AFC7D
:1044C0003B891A047B8913431946F868FFF762FC9D
:1044D0003B8B1A04FB8813431946F868FFF75AFC14
:1044E000BB8B1946F868FFF755FC00BF1037BD4677
:1044F00080BD80B400AF4EF68850CEF20000016857
:1045000041F47001016000BF00BF00BF00BF00BFE9
:1045100000BF00BF00BF00BFF1EE100A4FF0000166
:10452000C0F2C00140EA0100E1EE100A00BFBD4642
:104530005DF8047B7047000080B485B000AF786000
:104540000023FB600023BB607B68204A5A60204B3D
:104550009B6803F0F003FB60FB681B09FB601D4ACE
:10456000FB6813441B78BB607B685A68BB689A4041
:104570007B681A60164B9B6803F4E053FB60FB6892
:104580009B0AFB60134AFB6813441B78BB607B6883
:104590005A68BB68DA407B689A600D4B9B6803F4ED
:1045A0006043FB60FB685B0BFB600A4AFB681344DB
:1045B0001B78BB607B685A68BB68DA407B68DA604E
:1045C00000BF1437BD465DF8047B704700E6DF0C82
:1045D000003802400000002080B400AF0F4B1B6881
:1045E0000E4A43F0010313600C4B00229A600B4B00
:1045F0001A680A490A4B13400B60084B094A5A6073
:10460000064B1B68054A23F480231360034B0022EA
:10461000DA6000BFBD465DF8047B70470038024099
:10462000FFFFF6FE1030002480B400AF124B1B6C6D
:10463000114A43F080531364104B1B680F4A43F434
:104640008033136000BF0D4B5B6803F48033002B95
:10465000F9D00A4B1B68094A43F40033136000BFCA
:10466000064B5B6803F40033002BF9D000BF00BF9A
:10467000BD465DF8047B7047003802400070004082
:1046800080B500AFFFF7A8FF204B1B6C1F4A43F01B
:10469000805313641E4B1B681D4A43F44043136050
:1046A0001C4B1B681B4A43F480731360194B1B6837
:1046B000184A43F007031360FFF7B6FF134B164A7F
:1046C0005A60124B154A9A60104B81221A6000BF43
:1046D0000E4B1B6803F00203002BF9D00B4B1B6839
:1046E0000A4A43F08073136000BF084B1B6803F055
:1046F0000073002BF9D000BF044B9B6803F00C0340
:10470000082BF9D1FFF7F5FE00BF80BD003802404D
:1047100000700040003C0240106C000902946000F0
:1047200080B582B000AF78607B68054A02FB03F376
:1047300018460BF0D1FA00BF0837BD4680BD00BF58
:10474000E0A5010080B400AF074B1B7883F00103A4
:10475000DBB2002B02D0044B01221A7000BFBD4611
:104760005DF8047B704700BFA20800200000000035
:1047700051EC100B1E4A21F0004393421ED900B5A4
:104780001C4A934285B008D902460B46FBF73CFD14
:1047900041EC100B05B05DF804FB684600F070FAC0
:1047A00000F0030001289DED000B9DED021B14D0CD
:1047B000022807D0A0B900F067F8EBE79FED0A1BCD
:1047C00000F062B800F060F853EC102B03F10043E6
:1047D00000EE903A05B05DF804FB00F08DF9F3E7C8
:1047E000012000F089F9D5E700000000000000007A
:1047F000FB21E93FFFFFEF7F51EC100B204A21F036
:10480000004393421FD900B51E4A934285B008D990
:1048100002460B46FBF7F8FC41EC100B05B05DF8C7
:1048200004FB684600F02CFA00F0030001289DED1F
:10483000000B9DED021B17D0022809D0B8B901204A
:1048400000F05AF9EAE79FED0C1B002000F054B984
:10485000012000F051F953EC102B03F1004300EE5E
:10486000903A05B05DF804FB00F00EF8D6E700F0D2
:104870000BF8F0E7AFF3008000000000000000003C
:10488000FB21E93FFFFFEF7F2DE9F04F57EC106B65
:1048900027F00048B8F1795F5BEC11AB85B071D2BD
:1048A00030463946FCF718F9002800F0F48032460B
:1048B0003B4630463946FBF75FFE79A3D3E9002338
:1048C00004460D46FBF758FE77A3D3E90023FBF718
:1048D0009DFC22462B46FBF74FFE75A3D3E9002330
:1048E000FBF792FC22462B46FBF746FE72A3D3E968
:1048F0000023FBF78BFC22462B46FBF73DFE70A303
:10490000D3E90023FBF780FC22462B46FBF734FE5D
:104910006DA3D3E90023FBF779FC22462B46FBF776
:104920002BFECDE900016E4B002220462946FBF705
:1049300023FEDDE900238046894620462946FBF711
:104940001BFE44464D468046894652465B463046ED
:104950003946FBF711FE02460B4640464946FBF737
:1049600053FC02460B4620462946FBF74DFC024607
:104970000B4600205B49FBF747FC41EC100B05B0F0
:10498000BDE8F08F32463B4630463946FBF7F4FD32
:1049900043A3D3E9002304460D46FBF7EDFD42A3F4
:1049A000D3E90023FBF732FC22462B46FBF7E4FD5C
:1049B0003FA3D3E90023FBF727FC22462B46FBF756
:1049C000DBFD3DA3D3E90023FBF720FC22462B4669
:1049D000FBF7D2FD3AA3D3E90023FBF715FC2246EF
:1049E0002B46FBF7C9FD38A3D3E90023FBF70EFCE8
:1049F0002B462246FBF7C0FD3B4B9845CDE9000115
:104A000091D93A4B98453DD8A8F500130022354975
:104A1000002090469946FBF7F7FBCDE90201304BA9
:104A2000002220462946FBF7A7FD42464B46FBF7EE
:104A3000EBFBDDE900238046894620462946FBF74B
:104A40009BFD44464D468046894652465B4630466D
:104A50003946FBF791FD02460B4640464946FBF7B7
:104A6000D3FB02460B4620462946FBF7CDFB024608
:104A70000B46DDE90201FBF7C7FB41EC100B05B06B
:104A8000BDE8F08F9FED127BDFF864908DED027B27
:104A90004FF00008C3E79FED100B05B0BDE8F08FA5
:104AA000D43888BEE9FAA8BDC4B1B4BD9EEE213E9B
:104AB000AD529C804F7E923E9015CB19A001FA3EDC
:104AC0007751C1166CC1563F4C5555555555A53FAC
:104AD000000000000000E73F000000000000F03F81
:104AE0000000E03F0000F03F3233D33F0000E93FD9
:104AF0000000D23F000000002DE9F04F55EC104BB4
:104B000025F0004385B0B3F1795F8DED001B82463F
:104B100006D220462946FBF7DFFF002800F08C80F4
:104B200022462B4620462946FBF726FD06460F4621
:104B300032463B4620462946FBF71EFD45A3D3E9F6
:104B40000023CDE9020130463946FBF715FD43A3AA
:104B5000D3E90023FBF758FB32463B46FBF70CFD3D
:104B600040A3D3E90023FBF751FB32463B46FBF75A
:104B700003FD3EA3D3E90023FBF746FB32463B4649
:104B8000FBF7FAFC3BA3D3E90023FBF73FFB80468E
:104B90008946BAF1000F37D0DDE900012C4B002225
:104BA000FBF7EAFCDDE902AB42464B46804689460C
:104BB00050465946FBF7E0FC02460B464046494644
:104BC000FBF722FB32463B46FBF7D6FCDDE9002330
:104BD000FBF71AFB1CA3D3E9002306460F465046F9
:104BE0005946FBF7C9FC02460B4630463946FBF7EF
:104BF0000DFB02460B4620462946FBF705FB41EC20
:104C0000100B05B0BDE8F08F02460B463046394622
:104C1000FBF7B2FC0CA3D3E90023FBF7F5FADDE9BF
:104C20000223FBF7A9FC22462B46FBF7EFFA41ECE7
:104C3000100B05B0BDE8F08F45EC104B05B0BDE89A
:104C4000F08F00BFAFF30080495555555555C53F0E
:104C50000000E03F7CD5CF5A3AD9E53DEB9C2B8A4A
:104C6000E6E55A3E7DFEB157E31DC73ED561C11949
:104C7000A0012A3FA6F810111111813F0000000089
:104C80002DE9F04F53EC102B994923F000458D424C
:104C90008FB0044640F28E8096498D421F462AD836
:104CA000002F1046194688A3D3E9002340F3A781BB
:104CB000FBF7AAFA904B9D4206460F4600F08E8005
:104CC00083A3D3E90023FBF79FFA80468946424637
:104CD0004B4630463946FBF797FA7DA3D3E90023CC
:104CE000FBF792FAC4E90089C4E9020101263046C3
:104CF0000FB0BDE8F08F81498D4240F28980804934
:104D00008D4262D82E15A6F21646A5EB065910461E
:104D100049469046FBF7E0FEFBF7C4FB02460B4614
:104D200040464946CDE90823FBF76EFA754B002251
:104D3000FBF722FC89468046FBF7CEFEFBF7B2FB71
:104D400002460B4640464946CDE90A23FBF75CFA8A
:104D50006C4B0022FBF710FCCDE90C010DF1380A79
:104D600003254FF000084FF000097AE9020142469E
:104D70004B46AB46013DFBF767FE0028F5D1624B81
:104D800001930223009332465B46214608A800F0B7
:104D900093F9002F0646AADA6168226801F1004300
:104DA000E168C4E90023A26801F10043C4E90223D9
:104DB00046429CE70020002184ED000BC4E902017B
:104DC000002630460FB0BDE8F08F10461946FBF7BD
:104DD0001BFAC4E90201C4E90001F1E73EA3D3E9EB
:104DE0000023FBF711FA3EA3D3E9002306460F4642
:104DF000FBF70AFA8046894642464B46304639461A
:104E0000FBF702FA36A3D3E90023FBF7FDF969E7C4
:104E100000F048F959EC108B33A3D3E90023404646
:104E20004946FBF7A9FB394B0022FBF7EFF9FBF7EB
:104E300053FE0646FBF736FB02460B46CDE902233E
:104E400021A3D3E90023FBF797FB02460B4640461C
:104E50004946FBF7D9F91EA3D3E9002382468B46C6
:104E6000DDE90201FBF788FB02460B465046594636
:104E7000CDE90423FBF7C8F91F2E8046894649DC9B
:104E8000234B721E53F82230AB4243D042464B466E
:104E9000C4E9008950465946FBF7B6F9DDE9042319
:104EA000FBF7B2F9002FC4E90201BFF620AF09F108
:104EB0000043C4E9008301F10043C4E902037642E0
:104EC00015E700BFAFF3008000004054FB21F93F1D
:104ED0003163621A61B4D03D0000601A61B4D03D04
:104EE0007370032E8A19A33B83C8C96D305FE43FFA
:104EF000FB21E93F7BD90240FB21F93FFB213941EE
:104F0000FFFFEF7F0000704154FE00080000E03F0B
:104F1000D4FD0008C9F30A53C3EB1553102B4FEA15
:104F20002555B3DD56A3D3E90023DDE90201FBF7E4
:104F300023FB8046894642464B4650465946FBF77E
:104F400063F902460B4650465946CDE90623924680
:104F50009B46FBF759F942464B46FBF755F94AA3E6
:104F6000D3E9002380468946DDE90201FBF704FB13
:104F700042464B46FBF748F90B4602465946504617
:104F8000CDE90423FBF740F9C1F30A53ED1A312DA3
:104F9000804689467FF77AAF3EA3D3E90023DDE957
:104FA0000201FBF7E9FA8046894642464B46DDE9B5
:104FB0000601FBF729F982468B4652465B46DDE93E
:104FC0000601FBF721F942464B46FBF71DF933A3D7
:104FD000D3E9002380468946DDE90201FBF7CCFADC
:104FE00042464B46FBF710F902460B4650465946DF
:104FF000CDE90423FBF708F98046894646E7FBF72D
:1050000005F9234B9D4206460F4618D01AA3D3E953
:105010000023FBF7FBF88046894642464B46304664
:105020003946FBF7F1F814A3D3E90023FBF7EEF8B8
:10503000C4E90089C4E902014FF0FF3657E610A326
:10504000D3E90023FBF7E2F80FA3D3E900230646D8
:105050000F46FBF7DBF88046894642464B46304612
:105060003946FBF7D1F808A3D3E90023FBF7CEF8C4
:10507000DEE700BFAFF300803163621A61B4D03D58
:105080000000601A61B4D03D7370032E8A19A33BEF
:10509000FB21F93F0000002E8A19A33BC1492025BE
:1050A0009A837B3951EC100B024621F0004343EC0C
:1050B000102B7047000000002DE9F04FADF5197D71
:1050C0009C460A91B04BA299039053F82130049367
:1050D00012F1140F0CF1FF330293C0F2C182AB49FD
:1050E000D31E81FB0301DB17C3EBA103079301333D
:1050F000A3EB8303DB00D318079A0B930CF1FF3368
:10510000D41A049AD7181CD40137A39E274420AD83
:105110004FF000084FF00009E24608E056F824007E
:10512000FBF7C0F90134BC42E5E8020108D0002CCD
:10513000F4DA013440464946BC42E5E80201F6D1C2
:10514000D446049B002BB8BF4FEACC061BDB039967
:10515000029A049B0DF1800901EBCC0809EBCC0904
:105160000DF5E07B4FEACC06924663440020002117
:10517000002A80F298810AF1010A9A45EBE80201BF
:1051800009F10809F4D1039B049A009299190CAB18
:1051900003EB8203043B08930CAB03EB8206374618
:1051A0000B9ECDF824C08B46009A0DEBC203002A5B
:1051B000D3E970454FEAC2082CDD0DF5E07AD04402
:1051C0000DF1300901960597714B002220462946C2
:1051D000FBF7D2F9FBF780FCFBF764F96D4B00227B
:1051E00006460F46FBF7C8F902460B4620462946FD
:1051F000FBF70AF8FBF770FC78E9022349F8040B87
:1052000039463046FBF702F8D04504460D46DBD15F
:10521000019E059F45EC104B304600F091FB55EC8C
:10522000104B00224FF07F5320462946FBF7A4F98C
:1052300041EC100B00F010FC574B51EC100B00220E
:10524000FBF79AF902460B4620462946FAF7DCFF9F
:105250000D460446FBF740FC8246FBF723F9024665
:105260000B4620462946FAF7CFFF002E8046894696
:1052700040F39480009B0CAA591EC6F1180352F803
:10528000212042FA03F000FA03F3D21AC6F1170400
:1052900042FA04F40CAB002C43F82120824400F3C2
:1052A000F0800022002340464946FBF7CDFB002852
:1052B00000F02382009B049A93420CDD0CAA02EBBF
:1052C0008303002253F8041DBB4242EA0102F9D1D4
:1052D000002A40F01081049B0CAA013B52F82330B5
:1052E000009A501C8146002B40F0DB80089A012375
:1052F00052F8041D01330029FAD0009A1344009A91
:10530000099905960A440799019301EB000A0DF1EA
:105310008008A39906970AF1804A08EBC20870AA90
:105320000AF1FF3A02EBC00201EB8A0A00925AF836
:10533000040FFBF7B7F8029B002BE8E8020120DB23
:10534000039E47460024002577E90223F6E8020180
:10535000FBF712F902460B4620462946FAF756FF9C
:105360005E4504460D46EFD1009BE3E802450093FD
:10537000019B09F101099945D9DDDDE90567009334
:1053800012E700240025EFE7A0FF0008ABAAAA2A35
:105390000000703E000070410000204057D0B64B26
:1053A0000022FBF76FFB044600283FF47AAF009B16
:1053B000002B0AF1010AC8BF022440F384820CAB1F
:1053C000002153F8045B002D3CD0C5F1807543F8F3
:1053D000045C6FF07F4003E01A68821A43F8042BE4
:1053E000009A01318A42F7DC0125002E0EDD012EE4
:1053F00000F02B81022E09D1009B5A1E0CAB0CA988
:1054000053F82230C3F3150341F82230022C7FF405
:1054100048AF42464B4699490020FAF7F5FE8046D0
:105420008946002D3FF43DAF30469FED910B00F0D3
:1054300087FA4046494653EC102BFAF7E5FE8046C2
:1054400089462EE7009A01318A42BADCCDE7009BFB
:105450000CAA013B52F82340E415002C7FF721AF42
:10546000009B002B0AF1010AA9DC022C7FF419AF82
:1054700042464B4681490020FAF7C6FE80468946DF
:105480000FE7009B002B0AF1010A98DC012E00F0C7
:105490002E82022EE9D10CABC2F3150243F8212073
:1054A000E3E703462BE7CDE9003C52460596DA4692
:1054B000CB469146039E5F460024002577E90223F0
:1054C000F6E80201FBF758F802460B46204629464B
:1054D000FAF79CFE464504460D46EFD1009B09F1C4
:1054E00001099945EAE802450BF1080BE2D1DDF824
:1054F00004C0059E47E60B9BDDF800B0A3F118023F
:10550000CDE9024A0CAB0BF1FF340B9253F8243077
:1055100063B90BF18043013B0CA901EB830353F802
:10552000041D013C183A0029F9D00B929FED500B55
:105530000B9800F005FA002C5BEC10ABC0F2CD81AB
:1055400004F101084FEAC8010DF5E0790CAB4C4FAE
:10555000009103EB8805002609EBC80855F8040DF7
:10556000FAF7A0FF52465B46FBF706F83B4668E9B0
:105570000201324650465946FAF7FEFF0CAB9D42F7
:1055800082468B46EAD10099A1F1080A48ABCA4489
:10559000CDE905414FF000091A4607935346CA4624
:1055A000DDF81090A346B9F1000FC0F2A380CDE959
:1055B000002BDFF8D0801F460026002400259B46E4
:1055C00010E0F7E80223F8E80201FAF7D5FF0246F7
:1055D0000B4620462946FAF719FE0136B145044626
:1055E0000D4601DB5645ECDD5B46009ADDF804B064
:1055F0000BF1FF3BBBF1FF3FE2E802450AF1010A74
:10560000A3F10803CFD1A29A079B022ADDE9054145
:1056100000F3A980002A37DC10D15C18002000219B
:105620001D4674E90223FAF7F1FDAC42F9D1029B61
:10563000002B40F02F810A9BC3E90001039B03F07C
:1056400007000DF5197DBDE8F08F009B5A1E0CABCD
:105650000CA953F82230C3F3160341F82230D5E6E3
:1056600000216FF01703079145E500BFAFF30080FD
:10567000000000000000F03F0000E03F0000F03FAD
:105680000000703E60FF0008D3E900895D18002625
:1056900000279A4675E9022330463946FAF7B6FDE7
:1056A000554506460F46F5D1029B40464946002B1C
:1056B00040F0E3803B463246FAF7A6FD0A9BC3E979
:1056C00000676CB14AAE0125F6E802230135FAF70E
:1056D0009DFDAC42F8DA029B13B101F1004319467B
:1056E0000A9BC3E90201039B03F007000DF5197D36
:1056F000BDE8F08F002400257AE70B9EDDF800B0AE
:10570000704249EC108BCDE9024A00F019F955ECD2
:10571000104B884B002220462946FBF7B3F900289E
:1057200000F0A280844B002220462946FAF724FF8D
:10573000FBF7D2F90746FAF7B5FE7E4B0022FAF7DF
:105740001BFF0B46024629462046FAF75DFDFBF794
:10575000C3F90BF101040CAB183643F82B000B9680
:1057600043F82470E2E6A29A032A7FF467AF002C84
:1057700000F0CB8003EBC40595ED007B52EC171BCA
:10578000E600CDE90054CDE90465A8460C4615466F
:10579000994678E902672046294632463B46FAF7A1
:1057A00035FDA246AB4604460D4622462B46304602
:1057B0003946FAF729FD52465B46FAF727FDC845F8
:1057C000C8E90201C8E90045E3D1DDE900A4012CE4
:1057D000DDE904654B4600F09880D5E90045CDE948
:1057E000006909F1080B7AE90289204629464246F8
:1057F0004B46FAF70BFD26462F4604460D46224639
:105800002B4640464946FAF7FFFC32463B46FAF73C
:10581000FDFCD345CAE90201CAE90045E3D1DDE94F
:10582000006306F108041C4403F110050020002168
:105830001E4674E90223FAF7E9FCA542F9D1334682
:10584000D3E90045D3E90278029B3BBB0A9BC3E93D
:105850000401C3E90045C3E90278039B03F0070094
:105860000DF5197DBDE8F08F20462946FBF734F988
:105870000CAB5C4643F82B0058E60A9A07F100434C
:10588000536016603B463246FAF7BEFC002C7FF4AC
:1058900019AF22E701F100431946CCE6264605F18F
:1058A00000440A9D08F10043C5E9027301F1004379
:1058B000C5E90403039B03F00700C5E900640DF587
:1058C000197DBDE8F08F42464B461C490020FAF78F
:1058D0009BFC022480468946E3E4A29B022B0FDC5A
:1058E000002B15DC7FF4AAAE002000219FE60CAB54
:1058F000C2F31602022C43F821207FF4D2ACB7E5A4
:10590000A29B032B7FF49AAE48AB0020002197E7BF
:10591000029BDDE9480133B10A9C00224FF00043AD
:10592000C4E90023D9E60A9C00220023C4E900232D
:10593000D6E600BF000070410000703E0000F03F5E
:1059400070B555EC104BC5F30A5206462B4672BB98
:1059500025F00043234329D03B4B20462946002213
:10596000FAF70AFE394B9E4204460D4652DBC1F35C
:105970000A520B46363A4CF250318E4223DC164422
:1059800040F2FE7296421EDC002E34DC16F1350F1A
:1059900038DB6FF31E53363643EA065520462C4B50
:1059A00029460022FAF7E8FD41EC100B70BD40F2E9
:1059B000FF718A42DFD1224620462946FAF726FCAB
:1059C00041EC100B70BD002D17A1D1E9000107DBE0
:1059D00015A3D3E90023FAF7CFFD41EC100B70BDFE
:1059E00013A1D1E9000110A3D3E90023FAF7C4FD04
:1059F00041EC100BF3E76FF31E5343EA065545ECF9
:105A0000104B70BD002D0CA1D1E9000102DA0CA1F0
:105A1000D1E9000108A3D3E90023FAF7ADFD41EC79
:105A2000100B70BDAFF300809C7500883CE4377E9E
:105A30009C7500883CE437FE59F3F8C21F6EA5013F
:105A400059F3F8C21F6EA58100005043B03CFFFF20
:105A50000000903C0000000051EC100BC1F30A5311
:105A60002DE9F041A3F2FF35132D0C46064622DC4A
:105A7000002D41DB384B43FA05F801EA08030343E4
:105A80000F461DD032A3D3E90023FAF7BFFB002253
:105A90000023FBF701F840B1002C03DA4FF4801328
:105AA0002B411F4427EA080400262346324643ECD4
:105AB000102BBDE8F081332D06DDB5F5806F2BD0BE
:105AC00041EC100BBDE8F081A3F213434FF0FF3718
:105AD000DF403842F4D01EA3D3E90023FAF796FB47
:105AE00000220023FAF7D8FF0028DED0002C33462E
:105AF00020DB23EA0706D8E715A3D3E90023FAF74A
:105B000085FB00220023FAF7C7FF0028CDD0002C28
